:0C08A90048656C6C6F00576F726C640047
:10085E001208257BFF7A0879A91208007FC01208BA
:0A086E00437BFF7A0879AF0208000F
:0B08C100EF1FAC0670011E4C70F62209
:10084300AD07C2B17F2C7E011208C18DA07F057E4A
:0B085300001208C1C2B0D2B2C2B22233
:10082500E4F5A0F5B07F321208437F0C1208437F30
:0E083500061208437F011208437F8202084327
:10089100C2B18FA07F057E001208C1D2B0D2B2C210
:0808A100B27F2C7E010208C1A8
:100800008B088A09890AAB08AA09A90A1208786024
:1008100013050AE50A7002050914F9120878FF1297
:05082000089180E222B6
:030000000208B53E
:0C08B500787FE4F6D8FD75810A02085E29
:10087800BB010689828A83E0225002E722BBFE027E
:09088800E32289828A83E49322B1
:00000001FF
